:10000000000003203D0200008902000005170000E7
:100010008D0200008F02000091020000000000002D
:10002000000000000000000000000000930200003B
:10003000950200000000000097020000B5140000C7
:10004000250600002D060000350600003D060000D4
:10005000450600004D060000550600005D06000044
:10006000650600006D060000750600007D060000B4
:10007000850600008D060000950600009D06000024
:10008000A5060000AD060000B5060000BD06000094
:10009000C5060000CD060000D5060000DD06000004
:1000A000E5060000ED060000F5060000FD06000074
:1000B000050700000D070000150700001D070000E0
:1000C000250700002D070000350700003D07000050
:1000D000450700004D070000550700005D070000C0
:1000E000650700006D070000750700007D07000030
:1000F000850700008D070000950700009D070000A0
:10010000A5070000AD070000B5070000BD0700000F
:10011000C5070000CD070000D5070000DD0700007F
:10012000E5070000ED070000F5070000FD070000EF
:10013000050800000D080000150800001D0800005B
:10014000250800002D080000350800003D080000CB
:10015000450800004D080000550800005D0800003B
:10016000650800006D080000750800007D080000AB
:10017000850800008D080000950800009D0800001B
:10018000A5080000AD080000B5080000BD0800008B
:10019000C5080000CD080000D5080000DD080000FB
:1001A000E5080000ED080000F5080000FD0800006B
:1001B000050900000D090000150900001D090000D7
:1001C000250900002D090000350900003D09000047
:1001D000F87300000000002060000000F8730000C9
:1001E0000000FF1F00000000F87300000000001472
:1001F0000000000060000020700200000000FF1FEF
:1002000000000000000000140000000000239342E2
:100210000AD210B404680C600433043004319342F1
:10022000F8D35DF8044B70477047002303E00022C9
:100230000260043304308B42F9D3704710B572B6B4
:1002400004F09EFF0D4B07E003F10C049A68596817
:100250001868FFF7DBFF2346094A9342F4D306E010
:100260001C46596854F8080BFFF7DFFF2346054A80
:100270009342F5D362B604F0A8FFFEE7D001000078
:10028000F40100000C020000FEE7FEE7FEE7FEE7D7
:10029000FEE7FEE7FEE7FEE7FEE7FEE7FFFFFFFF04
:1002A000FFFFFFFFFFFFFFFFFFFFFFFFFFFFFFFF5E
:1002B000FFFFFFFFFFFFFFFFFFFFFFFFFFFFFFFF4E
:1002C000FFFFFFFFFFFFFFFFFFFFFFFFFFFFFFFF3E
:1002D000FFFFFFFFFFFFFFFFFFFFFFFFFFFFFFFF2E
:1002E000FFFFFFFFFFFFFFFFFFFFFFFFFFFFFFFF1E
:1002F000FFFFFFFFFFFFFFFFFFFFFFFFFFFFFFFF0E
:10030000FFFFFFFFFFFFFFFFFFFFFFFFFFFFFFFFFD
:10031000FFFFFFFFFFFFFFFFFFFFFFFFFFFFFFFFED
:10032000FFFFFFFFFFFFFFFFFFFFFFFFFFFFFFFFDD
:10033000FFFFFFFFFFFFFFFFFFFFFFFFFFFFFFFFCD
:10034000FFFFFFFFFFFFFFFFFFFFFFFFFFFFFFFFBD
:10035000FFFFFFFFFFFFFFFFFFFFFFFFFFFFFFFFAD
:10036000FFFFFFFFFFFFFFFFFFFFFFFFFFFFFFFF9D
:10037000FFFFFFFFFFFFFFFFFFFFFFFFFFFFFFFF8D
:10038000FFFFFFFFFFFFFFFFFFFFFFFFFFFFFFFF7D
:10039000FFFFFFFFFFFFFFFFFFFFFFFFFFFFFFFF6D
:1003A000FFFFFFFFFFFFFFFFFFFFFFFFFFFFFFFF5D
:1003B000FFFFFFFFFFFFFFFFFFFFFFFFFFFFFFFF4D
:1003C000FFFFFFFFFFFFFFFFFFFFFFFFFFFFFFFF3D
:1003D000FFFFFFFFFFFFFFFFFFFFFFFFFFFFFFFF2D
:1003E000FFFFFFFFFFFFFFFFFFFFFFFFFFFFFFFF1D
:1003F000FFFFFFFFFFFFFFFFFFFFFFFFFFFFFFFF0D
:10040000FFFFFFFFFFFFFFFFFFFFFFFFFEFFFFFFFD
:1004100080B584B000AFF860B9603B601346FB71F3
:10042000FB79002B02D1074804F0D6FEF9793B682E
:10043000BA68F86800F0DEF8034618461037BD4683
:1004400080BD00BFAC5A000080B483B000AF7860BC
:100450000B46FB70FB78002B08D07B68DB78DBB2A7
:1004600043F00803DAB27B68DA7007E07B68DB7878
:10047000DBB223F00803DAB27B68DA7000BF0C3716
:10048000BD465DF8047B704780B483B000AF7860F0
:100490000B46FB70FB78002B08D07B68DB78DBB267
:1004A00043F00403DAB27B68DA7007E07B68DB783C
:1004B000DBB223F00403DAB27B68DA7000BF0C37DA
:1004C000BD465DF8047B704780B483B000AF7860B0
:1004D0000B46FB70FB78002B06D07B689B6843F4CF
:1004E00000227B689A6005E07B689B6823F4002209
:1004F0007B689A6000BF0C37BD465DF8047B70478F
:1005000080B483B000AF78600B46FB70FB78002BA3
:1005100006D07B689B6843F480227B689A6005E084
:100520007B689B6823F480227B689A6000BF0C374D
:10053000BD465DF8047B704780B58CB000AFF860B5
:10054000B9607A603B60FB68002B02D1274804F059
:1005500043FEFB681A79264B1A71FB681B68244A14
:100560001360234B1B79022B20D0062B02D0012BCA
:1005700000D037E007F12003184603F0F9FCBB6810
:100580003B621B4B1B6807F120017A68184603F099
:1005900083FB174B1B6801211846FFF755FF144BCF
:1005A0001B6801211846FFF76FFF1BE007F11003DE
:1005B000184603F043FABB683B610D4B1B6807F11B
:1005C00010017A68184603F0F1F8094B1B68012105
:1005D0001846FFF779FF064B1B6801211846FFF705
:1005E0008FFF00BF00BF3037BD4680BDFC5A000002
:1005F0006000002080B586B000AFF8607A603B6094
:100600000B46FB72FB683B61FB7A3B7507F1100000
:1006100000233A687968FFF78FFF002318461837E0
:10062000BD4680BD08B5FFF738FE08BD08B5FFF729
:1006300034FE08BD08B5FFF730FE08BD08B5FFF76A
:100640002CFE08BD08B5FFF728FE08BD08B5FFF76A
:1006500024FE08BD08B5FFF720FE08BD08B5FFF76A
:100660001CFE08BD08B5FFF718FE08BD08B5FFF76A
:1006700014FE08BD08B5FFF710FE08BD08B5FFF76A
:100680000CFE08BD08B5FFF708FE08BD08B5FFF76A
:1006900004FE08BD08B5FFF700FE08BD08B5FFF76A
:1006A000FCFD08BD08B5FFF7F8FD08BD08B5FFF76C
:1006B000F4FD08BD08B5FFF7F0FD08BD08B5FFF76C
:1006C000ECFD08BD08B5FFF7E8FD08BD08B5FFF76C
:1006D000E4FD08BD08B5FFF7E0FD08BD08B5FFF76C
:1006E000DCFD08BD08B5FFF7D8FD08BD08B5FFF76C
:1006F000D4FD08BD08B5FFF7D0FD08BD08B5FFF76C
:10070000CCFD08BD08B5FFF7C8FD08BD08B5FFF76B
:10071000C4FD08BD08B5FFF7C0FD08BD08B504F06D
:1007200019F908BD08B5FFF7B8FD08BD08B504F014
:100730002DF908BD08B5FFF7B0FD08BD08B504F0F8
:1007400041F908BD08B5FFF7A8FD08BD08B504F0DC
:1007500055F908BD08B5FFF7A0FD08BD08B5FFF7BE
:100760009CFD08BD08B5FFF798FD08BD08B5FFF76B
:1007700094FD08BD08B5FFF790FD08BD08B5FFF76B
:100780008CFD08BD08B5FFF788FD08BD08B5FFF76B
:1007900084FD08BD08B5FFF780FD08BD08B5FFF76B
:1007A0007CFD08BD08B5FFF778FD08BD08B5FFF76B
:1007B00074FD08BD08B5FFF770FD08BD08B5FFF76B
:1007C0006CFD08BD08B5FFF768FD08BD08B5FFF76B
:1007D00064FD08BD08B5FFF760FD08BD08B5FFF76B
:1007E0005CFD08BD08B5FFF758FD08BD08B5FFF76B
:1007F00054FD08BD08B5FFF750FD08BD08B5FFF76B
:100800004CFD08BD08B5FFF748FD08BD08B5FFF76A
:1008100044FD08BD08B5FFF740FD08BD08B5FFF76A
:100820003CFD08BD08B5FFF738FD08BD08B5FFF76A
:1008300034FD08BD08B504F0FDF808BD08B5FFF7A4
:100840002CFD08BD08B5FFF728FD08BD08B5FFF76A
:1008500024FD08BD08B5FFF720FD08BD08B5FFF76A
:100860001CFD08BD08B5FFF718FD08BD08B5FFF76A
:1008700014FD08BD08B5FFF710FD08BD08B502F06E
:10088000C3FE08BD08B502F0BFFE08BD08B502F002
:10089000BBFE08BD08B502F0B7FE08BD08B502F002
:1008A000B3FE08BD08B502F0AFFE08BD08B5FFF7FE
:1008B000F4FC08BD08B5FFF7F0FC08BD08B5FFF76C
:1008C000ECFC08BD08B5FFF7E8FC08BD08B5FFF76C
:1008D000E4FC08BD08B503F0E9F808BD08B5FFF76A
:1008E000DCFC08BD08B5FFF7D8FC08BD08B5FFF76C
:1008F000D4FC08BD08B5FFF7D0FC08BD08B5FFF76C
:10090000CCFC08BD08B5FFF7C8FC08BD08B5FFF76B
:10091000C4FC08BD08B502F093FE08BD08B502F09E
:100920008FFE08BD08B502F08BFE08BD08B502F0C9
:1009300087FE08BD08B502F083FE08BD08B502F0C9
:100940007FFE08BD80B584B000AFF860B9607A6002
:100950003B607B68A3F5A553143B0B2B00F2D080C2
:1009600001A252F823F000BF010B0000F30A0000BF
:10097000010B0000010B000099090000010B0000B1
:10098000010B0000010B0000010B0000010B000037
:10099000010B0000010B00003B68002B28D15C4BD1
:1009A000DA7A5C4B1A705A4B9A7A5A4B5A70584BF7
:1009B0005A7A584B9A70564B1A7A564BDA70544BF7
:1009C000DA7B544B1A71524B9A7B524B5A71504BF3
:1009D0005A7B504B9A714E4B1A7B4E4BDA714E4BF1
:1009E00001221A704D4A4E494E4802F0EDFB8AE052
:1009F0003B68012B28D14C4BDA7A4C4B1A704A4B8E
:100A00009A7A4A4B5A70484B5A7A484B9A70464BDE
:100A10001A7A464BDA70444BDA7B444B1A71424BDC
:100A20009A7B424B5A71404B5A7B404B9A713E4BDA
:100A30001A7B3E4BDA713E4B01221A703D4A38490F
:100A4000384802F0C1FB5EE03B68022B28D13A4BEC
:100A5000DA7A3A4B1A70384B9A7A384B5A70364BCE
:100A60005A7A364B9A70344B1A7A344BDA70324BCE
:100A7000DA7B324B1A71304B9A7B304B5A712E4BCA
:100A80005A7B2E4B9A712C4B1A7B2C4BDA712C4BC8
:100A900001221A702B4A2249224802F095FB32E0CB
:100AA000294BDA7A294B1A70274B9A7A274B5A70BE
:100AB000254B5A7A254B9A70234B1A7A234BDA70BE
:100AC000214BDA7B214B1A711F4B9A7B1F4B5A71BA
:100AD0001D4B5A7B1D4B9A711B4B1A7B1B4BDA71BA
:100AE0001B4B01221A701B4A0D490E4802F06CFB89
:100AF00009E03B68042B05D1174B01221A7001E075
:100B000000BF00E000BF00BF1037BD4680BD00BF82
:100B1000180100207000002069000020F80000206B
:100B200090000020004002402801002078000020B2
:100B30006A00002000010020380100208000002011
:100B40006B000020080100204801002088000020E0
:100B50006C000020100100206800002080B582B0E9
:100B600000AF78600E4B04221A71012204210D4857
:100B700001F0D8FF7A68937843F0200393707A6885
:100B800093786FF304139370054A7B681360044AEB
:100B90000549044802F090FA00BF0837BD4680BD01
:100BA000F0000020004002409000002080B582B09C
:100BB00000AF78600E4B05221A71012205210D4805
:100BC00001F0B0FF7A68937843F0200393707A685D
:100BD00093786FF304139370054A7B681360044A9B
:100BE0000549044802F068FA00BF0837BD4680BDD9
:100BF000F0000020004002409000002080B582B04C
:100C000000AF78600E4B06221A71012206210D48B2
:100C100001F088FF7A68937843F0200393707A6834
:100C200093786FF304139370054A7B681360044A4A
:100C30000549044802F040FA00BF0837BD4680BDB0
:100C4000F0000020004002409000002080B582B0FB
:100C500000AF78600E4B07221A71012207210D4860
:100C600001F060FF7A68937843F0200393707A680C
:100C700093786FF304139370054A7B681360044AFA
:100C80000549044802F018FA00BF0837BD4680BD88
:100C9000F0000020004002409000002080B582B0AB
:100CA00000AF78600E4B08221A71012208210D480E
:100CB00001F038FF7A68937843F0200393707A68E4
:100CC00093786FF304139370054A7B681360044AAA
:100CD0000549044802F0F0F900BF0837BD4680BD61
:100CE000F0000020004002409000002080B582B05B
:100CF00000AF78600E4B09221A71012209210D48BC
:100D000001F010FF7A68937843F0200393707A68BB
:100D100093786FF304139370054A7B681360044A59
:100D20000549044802F0C8F900BF0837BD4680BD38
:100D3000F0000020004002409000002080B582B00A
:100D400000AF78600E4B0A221A7101220A210D4869
:100D500001F0E8FE7A68937843F0200393707A6894
:100D600093786FF304139370054A7B681360044A09
:100D70000549044802F0A0F900BF0837BD4680BD10
:100D8000F0000020004002409000002080B582B0BA
:100D900000AF78600E4B0B221A7101220B210D4817
:100DA00001F0C0FE7A68937843F0200393707A686C
:100DB00093786FF304139370054A7B681360044AB9
:100DC0000549044802F078F900BF0837BD4680BDE8
:100DD000F0000020004002409000002080B586B066
:100DE00000AF07F10C03184601F03AFE01233B74F3
:100DF000354BFB600023BB74022000F023FF02464A
:100E000007F10C031946314801F0A6FD01233B729E
:100E100000237B7240F601137B603A1D0123002101
:100E20002A4801F0D1FE40F602137B603A1D0123EF
:100E30000121264801F0C8FE40F603137B603A1DED
:100E400001230221214801F0BFFE40F604137B601C
:100E50003A1D012303211D4801F0B6FE00231C4A60
:100E60001C491A4802F0B8F81B4B00221A711A4BA1
:100E70001A4A1A60184A1749144802F0A5F9184B83
:100E800001221A71164B174A1A60154A11490F4868
:100E900002F09AF9144B02221A71134B134A1A608A
:100EA000114A0C49094802F08FF9114B03221A71BB
:100EB0000F4B104A1A600E4A0649044802F084F9A2
:100EC00000BF1837BD4680BD20A10700004002408A
:100ED0004509000090000020F800002018010020C3
:100EE0000001002028010020080100203801002016
:100EF000100100204801002080B483B000AF0346F9
:100F00003960FB7197F90730002B0ADB3B68DAB2D6
:100F10000C4997F907301201D2B20B4483F8002331
:100F20000AE03B68DAB20849FB7903F00F03043B9F
:100F30001201D2B20B441A7600BF0C37BD465DF8E1
:100F4000047B704700E100E000ED00E080B582B076
:100F500000AF78607B68013BB3F1807F01D3012350
:100F60000FE00A4A7B68013B53600F214FF0FF30CE
:100F7000FFF7C2FF054B00229A60044B07221A605C
:100F8000002318460837BD4680BD00BF10E000E0D2
:100F900080B483B000AF786039607B683A68DA600B
:100FA00000BF0C37BD465DF8047B704780B588B044
:100FB00000AF0023FB770023BB770023BB831F48D0
:100FC000FFF7C4FF01233B7200237B7201233B71B7
:100FD00000237B7104F07EF803F0DEFF03F032FDA6
:100FE00007F108031A460521154802F071FB3B1D65
:100FF0001A461021134802F06BFB00F04BFB412115
:10100000114800F02BFBFFF7E9FE104B1B78002B7B
:1010100000F0F7800E4B1B78022B06D0032B08D074
:10102000012B17D10023BB8318E04FF48073BB83DF
:1010300014E04FF44073BB8310E000BF001BB70007
:1010400080F00F4000F00F401000002059010020F8
:101050005A0100204FF40073BB8300BFBB8B43F0E9
:1010600001039BB21A4622F060423B6962F31C0303
:101070003B61BB7B042262F30303BB73A24B1B687F
:101080007B6107F10C031846FFF768FDBB8B43F04B
:1010900002039BB21A4622F060423B6962F31C03D2
:1010A0003B61BB7B042262F30303BB73974B1B685A
:1010B0007B6107F10C031846FFF778FDBB8B43F00B
:1010C00003039BB21A4622F060423B6962F31C03A1
:1010D0003B61BB7B042262F30303BB738C4B1B6835
:1010E0007B6107F10C031846FFF788FDBB8B43F0CB
:1010F00004039BB21A4622F060423B6962F31C0370
:101100003B61BB7B042262F30303BB73814B1B680F
:101110007B6107F10C031846FFF798FD3B6940F629
:10112000014262F31C033B61BB7B022262F30303B7
:10113000BB73794B1B881B0A9BB21A06764B1B8824
:101140001B0403F47F0313437B6107F10C03184670
:10115000FFF7A4FD3B6940F6024262F31C033B61CA
:10116000BB7B022262F30303BB736C4B1B881B0A1D
:101170009BB21A06694B1B881B0403F47F031343BD
:101180007B6107F10C031846FFF7B0FD3B6940F6A1
:10119000034262F31C033B61BB7B022262F3030345
:1011A000BB735F4B1B881B0A9BB21A065C4B1B88E8
:1011B0001B0403F47F0313437B6107F10C03184600
:1011C000FFF7BCFD3B6940F6044262F31C033B6140
:1011D000BB7B022262F30303BB73524B1B881B0AC7
:1011E0009BB21A064F4B1B881B0403F47F03134367
:1011F0007B6107F10C031846FFF7C8FD4A4B00223C
:101200001A704A4B1B78DBB2002B14D0FB7F0133E2
:10121000FB77FB7F092B0BD9434B01221A7020214E
:101220004348FFF7B5FE0023FB77BB7F0133BB7755
:101230003E4B00221A703F4B1B78002B0BD04122F3
:101240003D493E4803F0F4FF08213C4800F006FA0F
:10125000384B00221A703A4B1B78002B0BD04122DE
:101260003849364803F0E4FF0821344800F0F6F925
:10127000334B00221A70344B1B78002B0BD04122C9
:1012800032492E4803F0D4FF08212C4800F0E6F93B
:101290002D4B00221A702E4B1B78002B0BD04122B5
:1012A0002C49264803F0C4FF0821244800F0D6F951
:1012B000274B00221A70284B1B78002B3FF4A5AE59
:1012C000264B5B781A2B40F0D480244B9B78032B61
:1012D00048D801A252F823F0E9120000F1120000F0
:1012E000F9120000011300001D4B01221A703CE0AE
:1012F0001B4B02221A7038E0194B03221A7034E09B
:10130000174B04221A7030E0000000200400002077
:10131000080000200C0000205C0100205E0100207D
:1013200060010020620100205901002058010020C6
:1013300080F00F40690000207000002010000020A5
:101340006A000020780000206B0000208000002050
:101350006C00002088000020660100206801002049
:101360005A010020454B00221A70454BDB781A06C3
:10137000434B1B791B041A43414B5B791B021343FC
:101380003F4A927913433F4A13603D4BDB791A067B
:101390003B4B1B7A1B041A43394B5B7A1B021343EA
:1013A000374A927A1343384A1360354BDB7A1A0670
:1013B000334B1B7B1B041A43314B5B7B1B021343D8
:1013C0002F4A927B1343314A13602D4BDB7B1A0665
:1013D0002B4B1B7C1B041A43294B5B7C1B021343C6
:1013E000274A927C13432A4A1360254BDB7C9BB22D
:1013F0001B029AB2224B1B7D9BB213439AB2254B20
:101400001A801F4B5B7D9BB21B029AB21C4B9B7DCB
:101410009BB213439AB2204B1A80194BDB7D9BB2CF
:101420001B029AB2164B1B7E9BB213439AB21B4B04
:101430001A80134B5B7E9BB21B029AB2104B9B7EB1
:101440009BB213439AB2164B1A80164B01221A70A4
:1014500041220021144803F0EBFE1449124804F025
:10146000ABF9114804F0C9F9034619460E4800F0DB
:10147000F5F80F4B00221A70C7E500BF5A01002093
:101480006801002000000020040000200800002067
:101490000C0000205C0100205E01002060010020A3
:1014A000620100205901002010000020245B000090
:1014B0006601002080B400AF044B01221A70BFF314
:1014C0004F8F00BFBD465DF8047B70475801002078
:1014D00080B584B000AFF860B9607A603B607B682B
:1014E00040F2EA32934205D1514B00221A70514B1F
:1014F00000221A707B6840F2EB32934240F09480F5
:101500004D4B00221A704D4B1B7883F00103DBB268
:10151000002B00F083804A4B1B78222B7ED8484B4F
:101520001B781A46474B1978474B9954444B1B7804
:10153000002B22D1414B00221A70444B00221A701A
:101540003F4B1B781A46404B9B5CA02B11D13C4B68
:101550001B781A463C4B9A5C3C4B1B785340DAB2E2
:101560003A4B1A70364B1B780133DAB2344B1A708F
:1015700054E0334B00221A7050E0314B1B78012BA2
:101580001FD12F4B1B781A462F4B9B5C012B11D977
:101590002B4B1B781A462C4B9A5C2C4B1B785340D8
:1015A000DAB22A4B1A70264B1B780133DAB2244B7D
:1015B0001A7033E0224B00221A70244B00221A705A
:1015C0002CE01F4B1B78012B19D91D4B1B781A4699
:1015D0001D4B5B7801339A4211DA194B1B781A467E
:1015E000194B9A5C194B1B785340DAB2174B1A709F
:1015F000134B1B780133DAB2114B1A700EE0104B0B
:101600001B781A46104B9A5C104B1B789A4202D1F9
:101610000A4B01221A700A4B00221A7000230C4A4E
:101620000C490D4802F022FE00BF1037BD4680BDB8
:101630006401002065010020910100206601002066
:1016400090010020D40100206801002092010020B8
:10165000CC0100209401002000A0064080B582B09B
:1016600000AF78600B46FB70074A7B681360FB781D
:10167000054A5360044A0549054802F0A9FD00BF28
:101680000837BD4680BD00BFC40100209401002082
:1016900000A0064080B584B000AF3B46184602F07B
:1016A00067FC4FF4E1333B600123FB7201233B7382
:1016B000002000F0C7FA02463B4619460C4802F0EB
:1016C000EBFA00230B4A0C49094802F03FFD0B4B93
:1016D0000B4A1A60094B01225A600023074A064947
:1016E000034802F0C3FD00BF1037BD4680BD00BFF8
:1016F00000A00640D114000094010020CC0100207D
:10170000D401002004207146084202D0EFF3098082
:1017100001E0EFF3088081690A884BF6AB639A42D7
:1017200000D0FEE7023181612020704700BF80B405
:1017300085B000AF78607B681B0C03F1804303F534
:101740008E23FB60FB6819687B689BB201229A407C
:10175000FB680A431A6000BF1437BD465DF8047B7E
:10176000704780B485B000AF78607B681B0C03F1D4
:10177000804303F58E23FB60FB6819687B689BB28E
:10178000012202FA03F3DA43FB680A401A6000BF41
:101790001437BD465DF8047B7047FFFF80B483B00B
:1017A00000AF7860084B1B6823F440227B689B04E1
:1017B00003F44023044913430B6000BF0C37BD46BC
:1017C0005DF8047B704700BF0070044080B485B0B2
:1017D00000AFF860B9607A60114B03F580530433B1
:1017E0001B6823F44032FB681B0403F440330C49AC
:1017F0001A4301F5805304331A60BB685B0003F0A1
:101800000E027B6803F0010305491A4301F5835377
:1018100004331A6000BF1437BD465DF8047B70477F
:101820000070044080B485B000AF786039607B6898
:101830001B78FB73FB7B03F05F03FB733B681A7839
:10184000FB7B1343FB737B68FA7B1A703B685B7806
:101850009B01DAB27B689A7000BF1437BD465DF811
:10186000047B704780B485B000AF78600B46FB7096
:101870007B681B78FB73FB7B23F00F03FB73FA7B06
:10188000FB781343FB737B68FA7B1A7000BF143735
:10189000BD465DF8047B704780B582B000AF164B43
:1018A0001B7BDBB203F00303012B0FD0012B02D310
:1018B000022B16D018E0114B1B68002B02D11048E8
:1018C00003F08AFC0D4B1B687B6010E00D4B1B681E
:1018D000002B02D10C4803F07FFC0A4B1B687B6095
:1018E00005E00A4B7B6002E000237B6000BF7B6861
:1018F00018460837BD4680BD00400640DC01002088
:10190000385B0000E0010020645B0000006CDC023A
:1019100080B582B000AFFFF7BFFF78607B68002B17
:1019200001D17B6851E02B4B1B78DBB2DB08DBB2CB
:1019300003F00703FB70FB787A6822FA03F37B60FD
:10194000244B5B78DBB21B09DBB203F00303BB70F3
:10195000204B1B7BDBB203F003037B70BB78002BB7
:1019600002D07B78002B02D07B78022B2BD1FB7826
:10197000072B25D801A252F823F000BF9D190000C3
:101980009D1900009D1900009D1900009D1900007F
:101990009D190000A5190000B31900007B685B09C0
:1019A0007B6011E07B680C4AA2FB03231B097B6070
:1019B0000AE07B68094AA2FB0323DB087B6003E0A3
:1019C00000237B6000E000BF7B6818460837BD46F7
:1019D00080BD00BF00400640CDCCCCCCABAAAAAAAB
:1019E00080B400AF0C4B9B79DBB203F00103002BFA
:1019F00002D10A4B1B6809E0094B1A68064B1B7A97
:101A0000DBB25B0803F0070322FA03F31846BD4676
:101A10005DF8047B704700BF004006405400002082
:101A20005800002080B500AF074B9B79DBB203F074
:101A30001003002B03D1FFF76BFF034601E0034BBC
:101A40001B68184680BD00BF0040064054000020BF
:101A500080B500AFFFF720FF0346184680BDFFFFAB
:101A600080B485B000AF78607B6849F697029342F6
:101A700002D80023FB7308E07B68074A934202D830
:101A80000123FB7301E00223FB73FB7B1846143731
:101A9000BD465DF8047B704700127A0080B500AF48
:101AA000094B1B78DBB25BB2002B09DA074B1B68D2
:101AB000002B02D1064803F08FFB044B1B6800E0AB
:101AC0000023184680BD00BF00500640DC01002006
:101AD000905B000080B500AF0D4B1B78DBB25BB2B2
:101AE000002B11DA0B4B1B68002B02D10A4803F0C4
:101AF00073FB084B1A68064B9B78DBB29B0903F01B
:101B0000030322FA03F300E00023184680BD00BF60
:101B100000500640DC010020BC5B000080B582B0B4
:101B200000AF174B1B689B0C03F00303022B0FD075
:101B3000032B18D0002B1AD1FFF7CCFF0346B3F5C7
:101B4000004F02D14FF4004300E000237B6011E01E
:101B50000C4B1B68002B02D10B4803F03DFB094BDB
:101B60001B687B6006E04FF47A737B6002E0002321
:101B70007B6000BF7B6818460837BD4680BD00BF4C
:101B800000700440E0010020E85B000080B582B0F6
:101B900000AF204B03F5805304331B681B0C03F08C
:101BA0000303032B19D801A252F823F0BD1B000038
:101BB000C51B0000CD1B0000D51B000000F0DEF9A6
:101BC00078600DE000F042FA786009E000F074FA05
:101BD000786005E0104B7B6002E000237B6000BF73
:101BE0000C4B03F5835304331B6803F001030133EB
:101BF0007A6802FB03F2074B03F5835304331B6837
:101C00005B0803F007030133B2FBF3F31846083710
:101C1000BD4680BD00700440006CDC0280B500AFA2
:101C200000F064F90246064B03F5825304331B6847
:101C30001B0F03F00F030133B2FBF3F3184680BD13
:101C40000070044080B584B000AF0346FB71FB799F
:101C5000132B00F2928001A252F823F0AD1C000079
:101C6000AD1C0000CD1C0000ED1C00000D1D00008F
:101C70007B1D00002D1D0000351D00003D1D0000D6
:101C80007B1D0000451D00004D1D0000551D00007E
:101C90005D1D0000651D00007B1D00007B1D000018
:101CA0007B1D00006D1D0000731D000000F01EF97B
:101CB0000246364B03F5825304331B681B0F03F0B7
:101CC0000F030133B2FBF3F3FB6059E000F00EF9B0
:101CD00002462E4B03F5825304331B681B0E03F0A0
:101CE0000F030133B2FBF3F3FB6049E000F0FEF8B1
:101CF0000246264B03F5825304331B681B0D03F089
:101D00000F030133B2FBF3F3FB6039E000F0EEF8B0
:101D100002461E4B03F5825304331B681B0C03F071
:101D20000F030133B2FBF3F3FB6029E0FFF72EFF53
:101D3000F86025E0FFF7F2FEF86021E0FFF7CAFE49
:101D4000F8601DE0FFF7AAFEF86019E000F066F900
:101D5000F86015E000F050F9F86011E000F00EF9BD
:101D6000F8600DE000F072F9F86009E0084BFB60E4
:101D700006E04FF47A73FB6002E00023FB6000BFD3
:101D8000FB6818461037BD4680BD00BF0070044098
:101D9000006CDC0280B582B000AF78600D497B68D2
:101DA0005A6801F5825304331A607B681B78184621
:101DB0007B685B7819467B689B781A46FFF706FDBF
:101DC0007B68DB781846FFF7E9FC00BF0837BD46A3
:101DD00080BD00BF0070044080B584B000AF786063
:101DE00039607B68B3F5C02F02D1384803F0F4F9AD
:101DF0000123FB733648FFF7B4FC7B68002B0CD142
:101E0000344B03F5805304331B68324923F480229A
:101E100001F5805304331A603DE03B682E4A93423B
:101E20001AD02D4A934203D82C4A93421BD021E06A
:101E30002B4A934209D02B4A93421BD1254B03F5E1
:101E40008253083309221A6017E0224B03F58253AC
:101E5000083302221A6010E01E4B03F58253083348
:101E600005221A6009E01B4B03F582530833002258
:101E70001A6002E00023FB7300BF164B03F580538A
:101E800004331B6823F4E02212497B681A4301F5EE
:101E9000805304331A600E48FFF749FC7B68B3F5A2
:101EA000E02F0DD1104B032283F844210E4B93F801
:101EB0004031DBB20C4A63F07F03DBB282F8403181
:101EC000FB7B18461037BD4680BD00BF145C000088
:101ED000120034100070044000A24A04006CDC02BE
:101EE00000D8B805000E27070020074080B584B051
:101EF00000AF214B9B79DBB29B0803F00303BB606F
:101F00001D4B9B7CDBB21B0903F001037B60BB68AC
:101F1000032B28D801A252F823F000BF4F1F000066
:101F2000571F00005F1F00002D1F00007B68002B63
:101F300005D0012B07D100F0BFF8F86006E000F0F3
:101F400085F8F86002E00023FB6000BF0EE000F0BF
:101F500015F8F8600AE0FFF743FDF86006E0FFF7C8
:101F60009BFCF86002E00023FB6000BFFB681846A2
:101F70001037BD4680BD00BF0040064080B582B02E
:101F800000AF1B4B5B78DBB203F00203002B06D1E2
:101F9000174B9B79DBB203F02003002B01D0002309
:101FA00022E0FFF73FFD78607B68002B01D17B6862
:101FB0001AE00F4BDB78DBB25B09DBB203F0030303
:101FC000FB700B4BDB78DBB2DB09DBB203F0010308
:101FD000BB70FA78BB7807495200134431F81330CC
:101FE0001A467B6803FB02F318460837BD4680BDDE
:101FF00000400640DC5D000080B500AF064B1B785A
:10200000DBB203F00203002B01D1002302E0FFF753
:10201000E7FC0346184680BD0040064080B582B00C
:1020200000AFFFF7FFFC78607B68002B08D0FFF75C
:102030005DFF0346DB087A689A4201D87B6800E0BE
:10204000002318460837BD4680BDFFFF80B582B02B
:1020500000AF174B9B79DBB203F04003002B01D19B
:10206000002321E0FFF7F4FC78607B68002B02D1AD
:10207000104803F0B1F80E4B1B79DBB203F00703F5
:1020800001337A68B2FBF3F37B60094B5B79DBB217
:1020900003F01F0303F110027B6802FB03F37B6074
:1020A0007B685B087B607B6818460837BD4680BD4F
:1020B000004006403C5D000080B400AF034B1B684D
:1020C0001846BD465DF8047B704700BFD80100206C
:1020D00080B483B000AF7860044A7B68136000BFAF
:1020E0000C37BD465DF8047B704700BFD801002067
:1020F00080B485B000AF0346FB71174B1B7BDBB28E
:1021000003F00302FB799A4202D00123FB7301E042
:102110000023FB73104B1B7BDBB223F00303DAB20B
:10212000FB7903F00303DBB20B491343DBB20B7300
:10213000FB7B002B09D040F2DC53BB6000E000BF0A
:10214000BB685A1EBA60002BF9D100231846143719
:10215000BD465DF8047B70470040064080B485B002
:1021600000AF0346FB710B46BB7113467B713B4BC3
:102170009B79DBB29B0803F00303FB60374B9B7931
:10218000DBB203F00103FB72344B1B7ADBB25B085A
:10219000DBB203F00703BB727A79BB7A9A422CD088
:1021A000FB7A012B19D1FB68012B06D02B4B1B7836
:1021B000DBB203F00203002B0FD0284B5B78DBB2BD
:1021C000264A23F00103DBB2537000BF234B9B79F7
:1021D000DBB203F00103002BF8D1204B1B7ADBB2FA
:1021E00023F02F03DAB27B795B00DBB203F00E033E
:1021F000DBB21A491343DBB20B72184B5B78DBB2CC
:1022000023F00103DAB2BB7903F00103DBB2134917
:102210001343DBB24B70114B1B78DBB223F003038B
:10222000DAB20E49FB791343DBB20B70FB68012B6A
:1022300004D0FB7903F00203002B08D000BF074B4A
:102240009B79DBB203F00102BB799A42F7D10023FC
:1022500018461437BD465DF8047B704700400640C1
:1022600080B584B000AF78607B68002B02D11B483A
:1022700002F0B2FF0023FB737B685B7803F0070377
:10228000DAB2FB7B1343FB73154AFB7B1371144BD0
:102290005B79DBB223F01F03DAB27B689B7803F033
:1022A0001F03DBB20E491343DBB24B710C4B1B799E
:1022B000DAB27B681B781343DBB2094A43F0400370
:1022C000DBB2137100BF064B9B79DBB203F0400316
:1022D000002BF8D000BF1037BD4680BD645D000004
:1022E0000040064080B584B000AF78607B681B6812
:1022F0001846FFF7B5FB0346FB737B681B7919464D
:102300001948FFF7AFFA7B68063319461648FFF7FE
:1023100089FA164B5B78DBB223F03C03DAB2FB7B25
:102320001B01DBB203F03003DBB21343DAB27B688C
:102330005B790E491343DBB24B707B685B79002BF2
:102340000DD0094B1B78DBB25BB2002B07DA00BF64
:10235000064B9B79DBB203F00203002BF8D000BFE1
:102360001037BD4680BD00BF00500640004006400B
:1023700080B582B000AF03463960FB71FB79012B59
:1023800005D03B68002B02D1314802F025FF314BCC
:102390005B78DBB22F4A23F00203DBB253702D4B84
:1023A0001B78DBB203F03B03DBB22A4A63F07F0306
:1023B000DBB2137000BF274B9B79DBB203F01C0329
:1023C000082BF8D1234B5B79DBB2224A23F0400380
:1023D000DBB2537100BF1F4B9B79DBB203F02003CC
:1023E000002BF8D1FB79002B02D13868FFF738FFBA
:1023F000184B5B79DBB2174A43F04003DBB25371F1
:10240000144B1B7CDBB223F01003DAB2FB791B0107
:10241000DBB203F01003DBB20E491343DBB20B74E3
:1024200000BFFA790B4B9B7CDBB21B0903F0010365
:102430009A42F6D100BF074B9B79DBB203F0200331
:10244000002BF8D0002318460837BD4680BD00BFDA
:102450008C5D00000040064080B582B000AF0346AE
:102460003A60FB710B46BB71BB79012B05D03B6811
:10247000002B02D1104802F0AFFEFB791846FFF79F
:1024800037FEBB7939681846FFF772FF0B4B1B7894
:10249000DBB20A4A03F03F03DBB2137000BF074B05
:1024A0009B79DBB29B0803F00303032BF7D10023D6
:1024B00018460837BD4680BDB45D000000400640A8
:1024C00080B483B000AF0346FB7197F90730002B4F
:1024D0000BDBFB7903F01F02074997F907305B0913
:1024E000012000FA02F241F8232000BF0C37BD465C
:1024F0005DF8047B704700BF00E100E080B485B068
:1025000000AF78607B681B0C03F1804303F58E23DA
:10251000FB60FB6819687B689BB201229A40FB68EC
:102520000A431A6000BF1437BD465DF8047B70474C
:1025300080B582B000AF0346FB7197F9073013F105
:10254000800F01D1012305E097F907301846FFF706
:10255000B7FF002318460837BD4680BD80B483B05E
:1025600000AF786039607B683A681A6200BF0C3748
:10257000BD465DF8047B704780B483B000AF7860DF
:1025800039607B681A6B3B68134018460C37BD46B0
:102590005DF8047B704780B483B000AF7860396029
:1025A0007B683A681A6300BF0C37BD465DF8047B50
:1025B000704780B483B000AF786039603B6803F047
:1025C0008063002B05D07B681B6843F080627B68CA
:1025D0001A607B685A683B6823F080631A437B6803
:1025E0005A6000BF0C37BD465DF8047B704780B46D
:1025F00083B000AF786039603B6803F08063002BE4
:1026000005D07B681B6823F080627B681A607B685A
:102610005A683B6823F08063DB431A407B685A604A
:1026200000BF0C37BD465DF8047B704780B483B0B3
:1026300000AF786039607B689A6A3B681A437B68B0
:102640009A6200BF0C37BD465DF8047B704780B4CA
:1026500083B000AF786039607B689A6A3B68DB437F
:102660001A407B689A6200BF0C37BD465DF8047B58
:10267000704780B483B000AF78600B46FB70FB7886
:10268000002B0DD07B681B6823F000427B681A602A
:1026900000BF7B681B6803F48013002BF9D10CE0AA
:1026A0007B681B6843F000427B681A6000BF7B6850
:1026B0001B6803F48013002BF9D000BF0C37BD4614
:1026C0005DF8047B7047FFFF80B584B000AF786091
:1026D0000023FB6009E00D4AFB6852F823307A685A
:1026E0009A4206D0FB680133FB60FB68012BF2D9EC
:1026F00000E000BFFB68012B02D9054802F06CFD29
:10270000FB6818461037BD4680BD00BFEC5D000079
:10271000145E000080B483B000AF78607B681B68F3
:1027200043F080527B681A6000BF7B681B6803F02F
:102730008073002BF9D000BF0C37BD465DF8047BD9
:10274000704780B483B000AF78607B681B6823F06B
:1027500080527B681A6000BF7B681B6803F080733F
:10276000002BF9D100BF0C37BD465DF8047B7047E4
:1027700080B485B000AF78600B46FB707B681B6847
:1027800003F00053002B15D07B685B6B1B0EDBB294
:1027900003F00F03FB73FB7B0133DBB25B00DBB2A7
:1027A0000533FB73FA78FB7B9A4201D8012302E0E0
:1027B000002300E0002318461437BD465DF8047B73
:1027C0007047FFFF80B582B000AF78600B46FB70AA
:1027D000FB780F2B02D9094802F0FEFC7B689B6A4C
:1027E000FA78012101FA02F21340002B01D00123F3
:1027F00000E0002318460837BD4680BD5C5E00003F
:1028000080B584B000AF78607B681B68002B02DA6B
:102810002D4802F0E1FC00BF7B681B6803F48013C5
:10282000002BF9D17B681B6843F000727B681A604B
:1028300000BF7B681B6803F00073002BF9D17B6835
:102840001B6843F4201343F00F037A6813607B681E
:1028500080225A607B684FF433025A630023FB7373
:102860000AE0FA7B7B6802F508726FF0404143F89A
:102870002210FB7B0133FB73FB7B0F2BF1D97B68B1
:102880006FF040421A617B686FF040425A617B688A
:102890006FF040429A617B686FF040429A64002377
:1028A000FB7309E0FB7B7A6808331B0113440022A9
:1028B0001A60FB7B0133FB73FB7B0F2BF2D900BF4C
:1028C0001037BD4680BD00BFBC5E000080B588B03B
:1028D00000AFF860B9607A607A6813469B001344D1
:1028E0005B00FB617B68194A934202D9184802F0E9
:1028F00073FCFA69BB689A4202D9164802F06CFC74
:10290000FB69002B01D10123FB61BA68FB69B2FBB3
:10291000F3F3013BFB61FB69FF2B01D9FF23FB6153
:10292000FB699BB2BB820323FB7502233B76012329
:102930007B760123BB7507F114031946F86800F094
:10294000B3F800BF2037BD4680BD00BF40420F0036
:10295000FC5E0000345F000080B586B000AFF86018
:10296000B9607A60BB68002B02D13A4802F034FCAF
:10297000BB685B79002B03D0BB685B79102B02D955
:10298000354802F029FCF868FFF79EFE7861334A6B
:102990007B6952F823301846FFF7B0FD0021F86834
:1029A000FFF767FEBB681B79002B04D1FB685B68EF
:1029B00023F4005303E0FB685B6843F40053FA68B8
:1029C00053600121F868FFF754FEF868FFF718FF1D
:1029D000FB681B683B613B6923F07F02BB685B7946
:1029E000013B03F07F0313433B61BB689B79002BE2
:1029F00004D0FB685B6843F4805303E0FB685B68CA
:102A000023F48053FA685360BB68DB79002B03D052
:102A10003B6943F4800302E03B6923F480033B619C
:102A2000BB681B7A002B03D03B6943F4803302E080
:102A30003B6923F480333B61FB683A691A60BB68E9
:102A40001B681A467968F868FFF740FF00BF18371F
:102A5000BD4680BD6C5F0000945F00000C5E00000E
:102A600080B582B000AF78607B68002B02D10C4843
:102A700002F0B2FB7B6800221A717B68094A1A6077
:102A80007B6810225A717B6800229A717B68002251
:102A9000DA717B6800221A7200BF0837BD4680BD1C
:102AA0001C60000040420F0080B582B000AF78602B
:102AB00039603B68002B02D1194802F08DFB786821
:102AC000FFF728FE7B685A684FF6F87313407A6860
:102AD00053607B685A683B681B8819063B689B7883
:102AE0009B0503F4400319433B68DB78DB0403F4E4
:102AF000601319433B681B791B0403F4E02319435B
:102B00003B685B7903F007030B431A437B685A6009
:102B10007868FFF716FE00BF0837BD4680BD00BFCE
:102B20004460000080B582B000AF78600B46FB7057
:102B30001346BB70FA787B681B6803F07F039A42E8
:102B400002D91F4802F048FBFB7819467868FFF766
:102B50000FFE034683F00103DBB2002B02D11948BC
:102B600002F03AFBBB78002B08D0FB787A68083378
:102B70001B0113444FF000621A6006E0FB787A688C
:102B800008331B01134400221A60FB787A6808336B
:102B90001B011344043300221A60FB787A681B017E
:102BA0001344883300221A60FB787A681B011344AF
:102BB0008C3300221A6000BF0837BD4680BD00BFBD
:102BC000B86000000461000080B586B000AFF86016
:102BD0007A601A460B46FB721346BB72FA7AFB68A0
:102BE0001B6803F07F039A4202D9324802F0F4FADC
:102BF0007B68002B05D1BB7A002B02D02E4802F057
:102C0000EBFAFB7A1946F868FFF7B2FD034683F04A
:102C10000103DBB2002B02D1284802F0DDFA0023C9
:102C20007B61FB7AFA6808331B01134400221A60A7
:102C3000FB7AFA6808331B011344043300221A603C
:102C4000FB7AFA681B011344883300221A60FB7A6E
:102C5000FA681B0113448C3300221A60BB7A002BE4
:102C600023D0FB7A7A681268F96808331B010B4499
:102C700004331A607B681B79012B03D17B6943F411
:102C800000137B617B685B79012B03D17B6943F483
:102C900080137B617B6943F080637B61FB7AFA6818
:102CA00008331B0113447A691A6000BF1837BD4608
:102CB00080BD00BF4861000094610000D461000045
:102CC00080B586B000AFF8600B467A60FB72FA7A86
:102CD000FB681B6803F07F039A4202D9454802F063
:102CE0007BFA7B68002B02D1434802F075FA7B68BF
:102CF0009B78C3F30303DBB2082B02D93F4802F0F1
:102D00006BFAFB7A1946F868FFF732FD034683F049
:102D10000103DBB2002B02D1394802F05DFA002337
:102D20007B61FB7AFA6808331B0113441B6803F0CC
:102D30007063B3F1406F57D0FB7AFA6808331B0118
:102D400013441B6823F07062FB7A42F00062F9685A
:102D500008331B010B441A607B685B68C3F31C02D9
:102D6000FB7A1146FA6808331B01134404331960D7
:102D70007B689B7803F02003DBB2002B03D07B69D8
:102D800043F4C0037B617B689B7803F01003DBB2E4
:102D9000002B03D07B6943F480137B617B689B78B5
:102DA000C3F30303DBB21B0403F470227B691343F8
:102DB00043F040637B61FB7A7A689268F9681B0193
:102DC0000B4488331A60FB7A7A68D268F9681B0171
:102DD0000B448C331A60FB7AFA6808331B011344E6
:102DE0007A691A60002300E0012318461837BD46AF
:102DF00080BD00BFD8620000246300004C63000067
:102E00008463000080B586B000AFF8600B467A603E
:102E1000FB72FA7AFB681B6803F07F039A4202D9BF
:102E20003B4802F0D9F97B68002B02D1394802F007
:102E3000D3F9FB7A1946F868FFF79AFC034683F04A
:102E40000103DBB2002B02D1334802F0C5F9FB7A53
:102E5000FA6808331B0113441B687B617B691B0EF6
:102E6000DBB203F00F03FB74FB7C022B02D0FB7C74
:102E7000062B45D1FB7AFA6808331B01134404334F
:102E80001B6823F060417A68536861F31C03536048
:102E90007B695B0D03F00103D9B27A68937861F323
:102EA000451393707B691B0D03F00103D9B27A6857
:102EB000937861F3041393707B691B0C03F00F0389
:102EC000D9B27A68937861F303039370FB7AFA6856
:102ED0001B01134488331A687B689A60FB7AFA688E
:102EE0001B0113448C331A687B68DA60FB689B68AB
:102EF000FB7C022B01D1002305E041F2B94302E043
:102F0000FB689B68012318461837BD4680BD00BF8B
:102F1000C8630000146400003C64000080B584B005
:102F200000AF786039603B68002B02D1294802F07D
:102F300053F97B681B6803F00053002B44D07B6877
:102F4000D3F88030FB607B68D3F8843023F0604195
:102F50003A68536861F31C035360FB685B0D03F030
:102F60000103D9B23A68937861F345139370FB6813
:102F70001B0D03F00103D9B23A68937861F304138F
:102F80009370FB681B0C03F00F03D9B23A68937877
:102F900061F3030393707B68D3F888203B689A60E1
:102FA0007B68D3F88C203B68DA607B68DB6CDBB233
:102FB000C3F3080399B23A68538861F3CF1353807F
:102FC0007B689B68002300E0012318461037BD464C
:102FD00080BD00BF8064000080B586B000AFF8609F
:102FE000B9607A603B60BB68002B02D1274802F0D1
:102FF000F3F860220021B86802F01CF9F868FFF7C6
:1030000063FB0346FB75FB7D2149BA6841F8232029
:10301000BB687A681A60BB683A685A601D4B1E4AE2
:103020001A60BB681B68002B04D01C49F868FFF7C6
:10303000C0FA03E01949F868FFF7D9FAFB7D184A8E
:10304000D3561846FFF774FAFB7D164AD356184636
:10305000FFF76EFAFB7D144AD3561846FFF768FA5D
:10306000FB7D124AD3561846FFF762FAFB7D104AE1
:10307000D3561846FFF75CFAFB7D0E4AD356184626
:10308000FFF756FA00BF1837BD4680BDA8640000A0
:10309000E4010020EC010020ED33000000CC00042E
:1030A000F45D0000F85D0000FC5D0000005E0000C3
:1030B000045E0000085E000080B584B000AFF860D8
:1030C000B9607A60BB68002B02D13B4802F084F8FB
:1030D0007B68002B02D1394802F07EF87B681B79AF
:1030E0001A46FB681B6803F07F039A4202D93448F2
:1030F00002F072F87B681B791946F868FFF738FB15
:10310000034683F00103DBB2002B02D12D4802F00D
:1031100063F87B681B791A46BB68134493F84C30FC
:10312000DBB2002B41D17B681B689B7803F0100356
:10313000DBB2002B11D07B681B791A46BB681344A5
:10314000042283F84C207B681B791A467B68196837
:10315000BB68023243F8221007E07B681B791A46ED
:10316000BB681344032283F84C207B6819797B6881
:103170001B681A46F868FFF7A3FD0346002B0AD127
:103180007B681B791A46012393401946F868FFF7BC
:103190004DFA00230BE07B681B791A46BB68134489
:1031A000002283F84C20012301E041F2B443184689
:1031B0001037BD4680BD00BFD0640000F864000039
:1031C000206500007065000080B584B000AFF86035
:1031D000B9607A60BB68002B02D1284801F0FCFF7F
:1031E0007B68002B02D1264801F0F6FF7B681B7933
:1031F0001A46FB681B6803F07F039A4202D92148F4
:1032000001F0EAFF7B681B791946F868FFF7B0FA0E
:10321000034683F00103DBB2002B02D11A4801F010
:10322000DBFF7B681B791A46BB68134493F84C306C
:10323000DBB2002B1BD17B681B791A46BB68134499
:10324000012283F84C207B681B791A467B68196839
:10325000BB68023243F822107B681B791A460123AF
:1032600093401946F868FFF7E1F9002301E041F2C5
:10327000B74318461037BD4680BD00BFBC6500008F
:10328000E46500000C6600005C66000080B584B058
:1032900000AFF860B9601346FB71BB68002B02D128
:1032A0001C4801F099FFFA79FB681B6803F07F0363
:1032B0009A4202D9184801F08FFFFB791946F86845
:1032C000FFF756FA034683F00103DBB2002B02D16D
:1032D000124801F081FFFB79012202FA03F319463B
:1032E000F868FFF7B4F9FA79BB680232002143F8B5
:1032F0002210FB7901221946F868FFF713FCFB79CD
:10330000BA681344002283F84C2000BF1037BD4632
:1033100080BD00BFF8660000206700006C670000F9
:1033200080B584B000AFF860B9601346FB71BB682C
:10333000002B02D1194801F04FFFFA79FB681B6896
:1033400003F07F039A4202D9154801F045FFFB794B
:103350001946F868FFF70CFA034683F00103DBB265
:10336000002B02D10F4801F037FFFB79012202FA4E
:1033700003F31946F868FFF76AF9FA79BB68023275
:10338000002143F82210FB79BA681344002283F825
:103390004C2000BF1037BD4680BD00BFB0670000A5
:1033A000D86700002468000080B582B000AF786064
:1033B00039603B68002B02D10B4801F00DFF7B68A0
:1033C0001B6803F00053002B06D0E0217868FFF75C
:1033D0003EF93B6800229A643B68002283F85C2037
:1033E00000BF0837BD4680BD6868000090B587B053
:1033F00002AF786039603B68002B02D1804801F051
:10340000EBFE41F2BF43FB607B681B6ABB60BA689E
:103410007C4B1340002B07D041F2BE43FB6079493F
:103420007868FFF79BF8C2E00023BB6016E001223A
:10343000BB6802FA03F319467868FFF79DF8034664
:10344000002B08D0BB68DBB219467868FFF7BAF9E1
:103450000346002B06D1BB680133BB60BB680F2B52
:10346000E5D900E000BFBB68102B00F0C4803B68CA
:1034700093F85C30DBB2002B2FD00122BB6802FA3C
:1034800003F3802B29DC0122BB6802FA03F3402BF3
:1034900008D0802B02D0202B08D019E041F2BC4389
:1034A000FB6019E041F2BD43FB6015E03B689B6C9B
:1034B00019467868FFF732FDF860FB68002B02D1EF
:1034C00041F2BB43FB6039687868FFF76DFF03E0AA
:1034D00041F2BF43FB6000BF61E03A68BB68134440
:1034E0004C331B78DBB2013B032B54D801A252F8BA
:1034F00023F000BF05350000393500006D350000B0
:1035000083350000BB68D9B23B68BA68023253F811
:1035100022301A467868FFF775FCF860FB68002BCC
:1035200002D141F2B843FB60BB68DBB21A4639688E
:103530007868FFF7F5FE32E0BB68D9B23B68BA683D
:10354000023253F822301A467868FFF75BFCF860C5
:10355000FB68002B02D141F2B843FB60BB68DBB2D1
:103560001A4639687868FFF7DBFE18E041F2B54388
:10357000FB60BB68DBB21A4639687868FFF786FEE5
:103580000DE03A68BB6813444C3302221A7041F2D2
:10359000B643FB6003E041F2BF43FB6000BF012282
:1035A000BB6802FA03F319467868FEF7F4FF3B683C
:1035B0001B68002B09D03B681C683B685B68009364
:1035C000BB68FA6839687868A04741F2BF43FB607E
:1035D0007B681B6ABB604FF0FF317868FEF7CCFF59
:1035E0000346002B7FF413AFBA68064B1340002B41
:1035F0007FF40DAF00E000BF00BF1437BD4690BDA3
:10360000906800000700030080B500AF084B1B68FE
:10361000002B02D1074801F0DFFD074B1B68044A6D
:103620001268114605489847BFF34F8F00BF80BD11
:10363000E4010020B8680000EC01002000400240D6
:1036400080B500AF084B5B68002B02D1074801F042
:10365000C3FD074B1B68044A52681146054898474A
:10366000BFF34F8F00BF80BDE4010020EC68000075
:10367000EC01002000400A4080B485B000AFF86043
:10368000B9601346FB71FB79002B05D10122BB68A1
:103690009A40FB689A6004E00122BB689A40FB688C
:1036A0005A6000BF1437BD465DF8047B704780B593
:1036B00084B000AFF860B9601346FB71FB791A461D
:1036C000B968F868FFF7D8FF00BF1037BD4680BD66
:1036D00080B584B000AFF860B9607A607B68002B79
:1036E00002D1134801F078FD7B681B78002B0AD1CA
:1036F000FB685A690121BB6801FA03F3DB431A40F6
:10370000FB685A610FE07B685B781A46B968F86815
:10371000FFF7CDFFFB685A690121BB6801FA03F38B
:103720001A43FB685A6100BF1037BD4680BD00BF19
:103730006069000080B485B000AF78607B681B0CC6
:1037400003F1804303F58E23FB60FB6819687B68F7
:103750009BB201229A40FB680A431A6000BF1437EB
:10376000BD465DF8047B704780B584B000AF7860DB
:103770000023FB6006E00B4A7B68934206D0FB689F
:103780000133FB60FB68002BF5D000E000BFFB6855
:10379000002B02D0044801F01FFDFB6818461037CB
:1037A000BD4680BD00400C408469000080B58CB0EF
:1037B00000AFF860B9607A60BB68002B02D19A480C
:1037C00001F00AFDBB681B68002B02D1974801F08D
:1037D00003FDBB681B68BB6100237B6200237B8504
:1037E00004233B6246E0BB681B683A6A02FB03F3B2
:1037F0007A68B2FBF3F33B853B8D002B01D10123AB
:103800003B853B8D3A6A02FB03F37A68B2FBF3F324
:103810003B61BB681B683A69D31AFB61BB681A68D5
:103820003B8D013319463B6A03FB01F37968B1FB19
:10383000F3F3D31AFA699A420FD9BB681A683B8D21
:10384000013319463B6A03FB01F37968B1FBF3F3DB
:10385000D31AFB613B8D01333B85FA69BB699A4200
:1038600005D8FB69BB613B6A7B623B8D7B853B6A0C
:1038700001333B623B6A202BB5D9BB681B686C4A9D
:10388000A2FB03235A0913465B001344BA699A4208
:1038900002D940F22153C3E0F868FFF765FF786171
:1038A000644B1846FFF746FFFB689B6823F44022F1
:1038B000FB689A60FB681B68FB627B6A032B06D976
:1038C0007B6A072B03D8FB6A43F40033FB62FB6A75
:1038D00023F0F853FB627B6A013B1B0603F0F853AD
:1038E000FA6A1343FB62FB6A23F4FF5323F01F03BE
:1038F000FB627B8DC3F30C02FB6A1A43FB681A6000
:10390000FB681B6823F00052FB681A60FB689B6829
:1039100023F4E26323F00703FB62BB681B791A46BA
:10392000BB685B7B1B0203F4E0631A43BB681B7B31
:103930009B0003F004031343FA6A1343FB62BB6862
:103940001B79002B03D0FB6A43F01003FB62FB687A
:10395000FA6A9A60FB681B6823F40053FB62BB6839
:10396000DB795B0303F40052FB6A1A43FB681A60BD
:10397000314BFB62FB6A43F00043FB62FB6A43F49A
:103980004043FB62FB685A69BB68DB7A1B0103F0AA
:103990001001BB689B7A5B0103F020030B431A43C1
:1039A000FB685A61BB681B7A002B05D0FB685B691A
:1039B00043F00802FB685A61BB685B7A002B05D0B4
:1039C000FB685B6943F00102FB685A61BB689B7945
:1039D000002B04D0FB6A43F00053FB6203E0FB6A58
:1039E00023F00053FB62FB685A68FB6A1A43FB68CA
:1039F0005A60FB689B68FB62BB689B7B002B03D013
:103A0000FB6A43F40023FB62BB68DB7B002B03D023
:103A1000FB6A43F48023FB62FB68FA6A9A60002326
:103A200018463037BD4680BD606A0000886A0000D5
:103A30001F85EB5104002C1000001F4080B582B0A0
:103A400000AF78607B68002B02D1174801F0C4FBFF
:103A50007B684FF4E1321A607B6800221A717B6840
:103A600000225A717B6800229A717B680022DA7109
:103A70007B6800221A727B6800225A727B680022DF
:103A8000DA727B6800229A727B6800221A737B6864
:103A900000225A737B6800229A737B680022DA73D3
:103AA00000BF0837BD4680BDBC6A000080B500AFCE
:103AB000054B1B68054A1268114605489847BFF335
:103AC0004F8F00BF80BD00BFF4010020F001002037
:103AD00000400C4080B485B000AF78607B685B78B4
:103AE000FB73FB7B23F06003FB73FB7B43F0600302
:103AF000FB737B68FA7B5A70002318461437BD4667
:103B00005DF8047B7047FFFF80B483B000AF0346CD
:103B1000FB7197F90730002B0BDBFB7903F01F02D9
:103B2000074997F907305B09012000FA02F241F8D2
:103B3000232000BF0C37BD465DF8047B704700BFF3
:103B400000E100E080B485B000AF78607B681B0CBA
:103B500003F1804303F58E23FB60FB6819687B68E3
:103B60009BB201229A40FB680A431A6000BF1437D7
:103B7000BD465DF8047B704780B582B000AF034658
:103B8000FB7197F9073013F1800F01D1012305E094
:103B900097F907301846FFF7B7FF00231846083794
:103BA000BD4680BD80B584B000AF78600523BB60A2
:103BB0000023FB6009E00E4AFB6852F823307A6864
:103BC0009A4207D0FB680133FB60FA68BB689A42EF
:103BD000F1D300E000BFFA68BB689A4202D30548FF
:103BE00001F0FAFAFB6818461037BD4680BD00BFE9
:103BF000606E0000906E000080B584B000AF786009
:103C00007B68002B02D1134801F0E6FA7B685B8CDD
:103C10009AB27B681B8C9BB29A420CD97B681B8C36
:103C20009BB21A467B68DB6913447A68528C92B265
:103C30009B1AFB6008E07B681B8C9BB21A467B6872
:103C40005B8C9BB2D31AFB60FB6818461037BD46ED
:103C500080BD00BFC86E000080B584B000AF786042
:103C60007B68002B02D10B4801F0B6FA7868FFF7A9
:103C7000C3FF02467B68DB69013B9A4202D1012304
:103C8000FB7301E00023FB73FB7B18461037BD4636
:103C900080BD00BFEC6E000080B588B000AFF8605A
:103CA000B9607A60BB68002B02D1A64801F094FA93
:103CB000BB681B68002B02D1A34801F08DFAFB689A
:103CC000A24A93421AD0FB68A14A934214D0FB68DF
:103CD000A04A93420ED0FB689F4A934208D0FB68EB
:103CE0009E4A934201D1012309E04FF0FF3306E0E1
:103CF000012304E0012302E0082300E00823BA685E
:103D00009279934202DA964801F066FAFB688F4A8C
:103D100093421AD0FB688E4A934214D0FB688D4AB6
:103D200093420ED0FB688C4A934208D0FB688B4AC2
:103D3000934201D1012309E04FF0FF3306E0012354
:103D400004E0012302E0082300E00823BA68D279E6
:103D5000934202DA834801F03FFA0023FB830023F9
:103D60007B770023BB61BB681B681B017A68B2FBD1
:103D7000F3F3FB83FB8B002B01D10123FB83002397
:103D80007B617B685A00BB681B68B2FBF3F39AB295
:103D9000FB8B5B019BB2D31A7B827B685B00FA8B47
:103DA00051017A8A0A44B3FBF2F37B61BB681B685A
:103DB0007A699A4204D9BB681B687A69D31A03E00E
:103DC000BB681A687B69D31ABB61BB681B68664A0B
:103DD000A2FB03235A0913465B001344BA699A42B3
:103DE00002D940F2F533A9E0F868FFF7DBFE02469E
:103DF0005E4B53F822301846FFF7A4FEFB68DB78D1
:103E0000DBB223F00C03DAB2FB68DA70FB681B78D4
:103E1000DBB223F01F03DAB2FB8B1B0A9BB2DBB2CF
:103E20001343DAB2FB681A70FB8BDAB2FB685A7084
:103E3000FB689B7ADBB223F01F03DAB27B8ADBB22A
:103E400003F01F03DBB21343DAB2FB689A72FB681C
:103E50009B78DBB223F017037B77BB689B7A9B00D0
:103E6000DBB203F00403DAB27B7F13437B77BB68DA
:103E70001B79002B07D0BB681A797B7F1343DBB219
:103E800043F010037B77FB687A7F9A70FB681B789E
:103E9000DBB223F02003DAB2BB685B795B01DBB2F3
:103EA00003F02003DBB21343DAB2FB681A70BB687D
:103EB0009A79FB68DA74BB68DA79FB685A75FB6833
:103EC0001B7CDBB263F07703DAB2FB681A74FB6821
:103ED0005B7CDBB263F03F03DAB2FB685A74BB6809
:103EE0001B7A002B07D0FB685B7BDBB243F0080337
:103EF000DAB2FB685A73BB685B7A002B07D0FB68A9
:103F00005B7BDBB243F00103DAB2FB685A73FB68F8
:103F1000DB787B77BB68DB7A002B03D07B7F43F0B9
:103F200008037B77BB681B7B002B03D07B7F43F0B0
:103F300004037B77FB687A7FDA700023184620370A
:103F4000BD4680BD106F0000346F000000A0064029
:103F500000B0064000C0064000D0064000A00E4061
:103F6000686F0000C46F00001F85EB517C6E00007D
:103F700080B582B000AF78607B68002B02D1134817
:103F800001F02AF97B684FF4E1321A607B68002265
:103F90001A717B6800225A717B6800229A717B68D3
:103FA0000122DA717B6800221A727B6800225A7241
:103FB0007B6800229A727B680022DA727B6800229A
:103FC0001A7300BF0837BD4680BD00BF20700000D7
:103FD00080B483B000AF786039603A68174B134003
:103FE0003B607B681B78DAB23B68DBB21343DAB222
:103FF0007B681A707B68DB78DAB23B681B0ADBB23D
:104000001343DAB27B68DA707B689B79DAB23B687B
:104010001B0CDBB21343DAB27B689A717B685B7C62
:10402000DAB23B681B0EDBB21343DAB27B685A7418
:1040300000BF0C37BD465DF8047B7047C0F00F072A
:1040400080B483B000AF786039603A681B4B13408E
:104050003B607B681B78DAB23B68DBB2DB43DBB2E8
:104060001340DAB27B681A707B68DB78DAB23B689F
:104070001B0ADBB2DB43DBB21340DAB27B68DA70D7
:104080007B689B79DAB23B681B0CDBB2DB43DBB2AB
:104090001340DAB27B689A717B685B7CDAB23B686A
:1040A0001B0EDBB2DB43DBB21340DAB27B685A741F
:1040B00000BF0C37BD465DF8047B7047C0F00F07AA
:1040C00080B586B000AFF860B9607A60BB68002B3D
:1040D00002D10B4801F080F800237B6108E0BA6848
:1040E0007B6913441A78FB68DA717B6901337B6161
:1040F0007A697B689A42F2D300BF1837BD4680BD0B
:104100007070000080B586B000AFF860B9607A606A
:10411000BB68002B02D10C4801F05EF800237B61E4
:1041200009E0BA687B691344FA68D279D2B21A708E
:104130007B6901337B617A697B689A42F1D300BF66
:104140001837BD4680BD00BFB870000080B586B08E
:1041500000AFF860B9607A603B60BB68002B02D1A9
:10416000164801F039F830220021B86801F062F8F1
:10417000BB68022283F82D20BB68002283F82C2024
:10418000BB687A685A62BB683A689A62F868FFF757
:1041900009FD78610A497B69BA6841F82320094B17
:1041A000094A1A60094A7B69134493F9003018469A
:1041B000FFF7E2FC00BF1837BD4680BDDC70000091
:1041C000F80100200C0200201D440000746E000065
:1041D00080B586B000AFF860B9607A60BB68002B2C
:1041E00002D11E4800F0F8FF7B68002B02D11C486A
:1041F00000F0F2FF7B685B68002B02D1194800F0E9
:10420000EBFF7B681B68002B02D1174800F0E4FF2E
:10421000BB6893F82C30DBB2012B03D14FF47A73D7
:104220007B6116E07B681A68BB681A607B685A6815
:10423000BB685A607B685A68BB689A60BB68012299
:1042400083F82C204FF40041F868FFF7C1FE0023EB
:104250007B617B6918461837BD4680BD70710000D0
:1042600094710000B8710000E471000090B58BB04B
:1042700000AFF860B9607A603B60BB68002B02D188
:10428000624800F0A9FF7B68002B02D1604800F073
:10429000A3FF7B681B68002B02D15E4800F09CFFE7
:1042A0007B685B68002B02D15B4800F095FF002320
:1042B0007B61BB6893F82D30DBB2032B03D140F256
:1042C000E9333B629CE07B685B68FB610023BB6178
:1042D000BB689B69002B69D04FF40051F868FFF769
:1042E000AFFEB868FFF788FC78617B69002B34D09B
:1042F0007A69FB69934228BF13467B61FA697B693F
:10430000D31AFB6100237B6223E0BB689B69BA6818
:10431000528C92B21A447B681968BB69581CB86108
:104320000B4412781A70BB685B8C9BB25A1CBB683A
:10433000DB699A4203D1BB6800225A8406E0BB685D
:104340005B8C9BB201339AB2BB685A847B6A01339F
:104350007B627A6A7B699A42D7D3FB69002B0FD0C4
:104360007B681A68BB691A44BB68DA60BB68FA6983
:104370001A61BB68FA695A61BB68032283F82D2071
:104380004FF40051F868FFF723FEFB69002B2FD193
:10439000BB685B6A002B2BD0BB685C6ABB689B6AFE
:1043A00040F2EB32B968F868A04721E07B681A68F0
:1043B000BB691A44BB68DA60BB68FA691A61BB68FA
:1043C000FA695A61BB68032283F82D204FF4232138
:1043D000F868FFF7FDFDFB689B78DBB203F0020392
:1043E000DBB2002B04D04FF48031F868FFF7F0FD0A
:1043F0003B68002B02D03B68BA691A6000233B621D
:104400003B6A18462C37BD4690BD00BF787200004D
:104410009C720000C0720000E872000090B585B088
:1044200000AF786039603B68002B02D19B4800F0F8
:10443000D3FE7B681B79DBB203F00203DBB2002BF7
:1044400025D001E07B68DB797B681B79DBB203F068
:104450002003002BF6D17B685B7CDBB243F040038A
:10446000DAB27B685A743B68042283F82D203B68DB
:1044700000221A613B685B6A002B08D03B685C6ACB
:104480003B689B6A40F2F33239687868A0477B68E2
:104490001B79DBB203F00103DBB2002B25D001E076
:1044A0007B68DB797B681B79DBB203F02003002B90
:1044B000F6D17B685B7CDBB243F04003DAB27B6809
:1044C0005A743B68052283F82D203B6800221A614C
:1044D0003B685B6A002B08D03B685C6A3B689B6A60
:1044E0004FF47D7239687868A0477B681B79DBB22E
:1044F00003F00803DBB2002B1ED001E07B68DB7900
:104500007B681B79DBB203F02003002BF6D17B68BC
:104510005B7CDBB243F04003DAB27B685A743B68E1
:104520005B6A002B08D03B685C6A3B689B6A40F280
:10453000F13239687868A0477B681B79DBB203F0F9
:104540001003DBB2002B00F08A807B68DB78DBB2E3
:1045500003F01003DBB2002B00F081807B689B7DB1
:10456000FB7348E03B681A69FB7B9A4203D23B68C5
:104570001B69DBB200E0FB7BBB733B68DB68BA7B8B
:1045800019467868FFF7BEFD3B68DA68BB7B1A44C2
:104590003B68DA603B681A69BB7BD21A3B681A61D8
:1045A000FA7BBB7BD31AFB733B681B69002B22D1C0
:1045B0003B68022283F82D204FF422217868FFF710
:1045C0003FFD7B689B78DBB203F00203DBB2002B7C
:1045D00004D04FF480317868FFF732FD3B685B6AA6
:1045E000002B08D03B685C6A3B689B6A40F2EB3268
:1045F00039687868A047FB7B002B06D03B681B69B5
:10460000002BAFD101E07B68DB797B681B79DBB2E3
:1046100003F01003DBB2002BF5D17B685B7CDBB2CF
:1046200043F04003DAB27B685A743B681B69002B85
:1046300004D14FF480517868FFF702FD3B685B6A54
:10464000002B0CD03B681B69002B08D03B685C6AD0
:104650003B689B6A40F2F63239687868A0477B680D
:104660001B79DBB203F02003DBB2002B00F0B78034
:104670007B68DB78DBB203F02003DBB2002B00F0B9
:10468000AE807B689B7DFB7338E03B681A69FB7BDF
:104690009A4205D23B681B69DBB202E080730000DE
:1046A000FB7BBB733B68DB68BA7B19467868FFF716
:1046B00029FD3B68DA68BB7B1A443B68DA603B68DB
:1046C0001A69BB7BD21A3B681A61FA7BBB7BD31A8F
:1046D000FB733B681B69002B10D13B68022283F8F7
:1046E0002D203B685B6A002B08D03B685C6A3B6806
:1046F0009B6A40F2EB3239687868A047FB7B002B5D
:1047000003D03B681B69002BBFD13B689B69002B22
:104710004FD048E03868FFF79FFA0346002B0CD0D3
:104720003B685B6A002B08D03B685C6A3B689B6A0D
:104730004FF47C7239687868A0473868FFF78CFAC4
:104740000346002B12D03B685B8C9BB25A1C3B6823
:10475000DB699A4203D13B6800225A8406E03B6839
:104760005B8C9BB201339AB23B685A843B689B696D
:104770003A68128C92B213447A68D279D2B21A7023
:104780003B681B8C9BB25A1C3B68DB699A4203D185
:104790003B6800221A8406E03B681B8C9BB2013305
:1047A0009AB23B681A84FB7B5A1EFA73002BB1D174
:1047B00015E03B681B69002B11D14FF4222178686A
:1047C000FFF73EFC7B689B78DBB203F00203DBB2B1
:1047D000002B04D04FF480317868FFF731FC3B6840
:1047E00093F82D30DBB2042B05D03B6893F82D30C5
:1047F000DBB2052B15D13B689B69002B11D14FF41F
:1048000023217868FFF71CFC7B689B78DBB203F000
:104810000203DBB2002B04D04FF480317868FFF73D
:104820000FFC7B681B79DBB25BB2002B70DA7B6814
:10483000DB78DBB25BB2002B6ADA7B68364A9342E4
:1048400019D07B68354A934213D07B68344A93422F
:104850000DD07B68334A934207D07B68324A93423B
:1048600001D1012308E0FF2306E0012304E0012336
:1048700002E0082300E008237A68127DD2B29B1A76
:10488000FB733EE03B685A68FB7B9A4203D23B686D
:104890005B68DBB200E0FB7BBB733B681B68BA7BE9
:1048A00019467868FFF70CFC3B681A68BB7B1A4412
:1048B0003B681A603B685A68BB7BD21A3B685A60F7
:1048C000FA7BBB7BD31AFB733B685B68002B18D168
:1048D0003B68002283F82C207B68DB78DBB203F096
:1048E0007F03DAB27B68DA703B685B6A002B08D022
:1048F0003B685C6A3B689B6A40F2EA3239687868D8
:10490000A047FB7B002B03D03B685B68002BB9D131
:1049100000BF1437BD4690BD00A0064000B0064061
:1049200000C0064000D0064000A00E4080B500AF99
:10493000054B1B68054A1268114605489847BFF3A6
:104940004F8F00BF80BD00BF0C020020F801002087
:1049500000A0064080B500AFFFF7E8FFBFF34F8F20
:1049600000BF80BD80B500AF054B1B68054A52688B
:10497000114605489847BFF34F8F00BF80BD00BF69
:104980000C020020F801002000B0064080B500AF06
:10499000FFF7E8FFBFF34F8F00BF80BD80B500AFCA
:1049A000054B1B68054A9268114605489847BFF3B6
:1049B0004F8F00BF80BD00BF0C020020F801002017
:1049C00000C0064080B500AFFFF7E8FFBFF34F8F90
:1049D00000BF80BD80B500AF054B1B68054AD2689B
:1049E000114605489847BFF34F8F00BF80BD00BFF9
:1049F0000C020020F801002000D0064080B500AF76
:104A0000FFF7E8FFBFF34F8F00BF80BD80B500AF59
:104A1000054B1B68054A1269114605489847BFF3C4
:104A20004F8F00BF80BD00BF0C020020F8010020A6
:104A300000A00E4080B500AFFFF7E8FFBFF34F8F37
:104A400000BF80BD80B582B000AFFDF7E7F87860A9
:104A50007B6801224FF4E1310348FBF7D9FC00BF2A
:104A60000837BD4680BD00BF00A0064080B485B0B9
:104A700000AF78607B681B0C03F1804303F58E2345
:104A8000FB60FB6819687B689BB201229A40FB6857
:104A90000A431A6000BF1437BD465DF8047B7047B7
:104AA00080B485B000AF78607B681B0C03F1804355
:104AB00003F58E23FB60FB6819687B689BB20122BB
:104AC00002FA03F3DA43FB680A401A6000BF1437A6
:104AD000BD465DF8047B704780B483B000AF78605A
:104AE0000B4B03F5805304331B6823F040627B6853
:104AF0009B0603F0406306491A4301F580530433D3
:104B00001A6000BF0C37BD465DF8047B704700BFDC
:104B10000070044080B483B000AF78600B4B03F5A5
:104B2000805304331B6823F040727B681B0603F03C
:104B3000407306491A4301F5805304331A6000BFDD
:104B40000C37BD465DF8047B704700BF0070044021
:104B500080B485B000AFF860B9607A60114B03F59E
:104B6000805304331B6823F48052FB681B0303F457
:104B700080530C491A4301F5805304331A60BB6813
:104B80005B0003F00E027B6803F0010305491A4342
:104B900001F5835308331A6000BF1437BD465DF832
:104BA000047B70470070044080B483B000AF78602D
:104BB0000A4B03F5805304331B6823F0E0027B6843
:104BC0005B01DBB205491A4301F5805304331A60D7
:104BD00000BF0C37BD465DF8047B70470070044091
:104BE00080B483B000AF78600B4B03F5805304337F
:104BF0001B6823F010027B681B0103F010030649B9
:104C00001A4301F5805304331A6000BF0C37BD46C8
:104C10005DF8047B704700BF0070044080B400AFB3
:104C2000054B03F582530433044A1A6000BFBD46A6
:104C30005DF8047B704700BF00700440000026024E
:104C400080B483B000AF7860044A7B68136000BF13
:104C50000C37BD465DF8047B704700BFDC010020C7
:104C600080B483B000AF7860044A7B68136000BFF3
:104C70000C37BD465DF8047B704700BFE0010020A3
:104C800080B483B000AF78600B46FB707B68FA7825
:104C90001A7000BF0C37BD465DF8047B704780B4C6
:104CA00083B000AF78607B68DB78DBB218460C37E6
:104CB000BD465DF8047B704780B485B000AF786076
:104CC00039607B681B69FB60FB6823F47053FB60F1
:104CD000FA683B681343FB607B68FA681A6100BF9F
:104CE0001437BD465DF8047B7047FFFF80B582B086
:104CF00000AF78600B46FB701B48FFF7B7FE1B4BFD
:104D00001B6903F48073002B09D179681748FFF7FA
:104D1000D3FF164B1B69154A43F480731361FB786C
:104D2000002B06D0114B1B69104A23F4007313614A
:104D300005E00E4B1B690D4A43F4007313614FF4F9
:104D40000040FFF78DFF094B5B6903F00103002B67
:104D500003D0064B054A1B6813600348FFF7A0FE0B
:104D600000BF0837BD4680BD1D003C1000D0034089
:104D700080B485B000AF78600023FB607B68354A63
:104D8000934202D10023FB600CE07B68324A9342DD
:104D900002D10123FB6005E07B68304A934201D1D8
:104DA0000223FB602E4B03F5815310331B682C4903
:104DB00043F0040201F5815310331A60284B03F5C8
:104DC000805304331B68264943F0020201F58053E7
:104DD00004331A60234BBB6000E000BFBB685A1E5F
:104DE000BA60002BF9D1204B0122C3F830211E4BB1
:104DF0001B6B1D4A23F0004313631B4BD3F8A030F9
:104E0000194A43F48053C2F8A030174BD3F8A030AE
:104E100023F003021449FB681343C1F8A030124B7E
:104E2000D3F8A030104A23F48033C2F8A0300E4BE0
:104E30001B6B0D4A23F08043136300BF0A4BD3F86A
:104E4000A030002BFADA00BF1437BD465DF8047BB2
:104E5000704700BF00366E010024F400001BB7004D
:104E60000070044020A1070000200A4080B584B0F3
:104E700000AF03460A46FB711346BB71FB79254A16
:104E8000B2FBF3F34FF47A7202FB03F3FB60224BA5
:104E9000D3F8003123F47F72FB791B0103F47C719A
:104EA000BB799B0003F00C030B431B491343C1F870
:104EB0000031194BD3F80031174A23F00203C2F82E
:104EC000003100BF144BD3F80031002BFADABB7964
:104ED000002B05D1114B1B681846FDF7F9F814E0BB
:104EE000BB79012B05D1FB689B081846FDF7F0F84C
:104EF0000BE0BB79022B05D1FB685B081846FDF778
:104F0000E7F802E0F868FDF7E3F800BF1037BD46A8
:104F100080BD00BF00D6830000200A40DC010020D5
:104F200080B483B000AF0346FB710B4B03F5805395
:104F300004331B6823F00102FB7903F001030649E7
:104F40001A4301F5805304331A6000BF0C37BD4685
:104F50005DF8047B704700BF0070044080B483B0EC
:104F600000AF0346FB710B4B1B78DBB223F0380319
:104F7000DAB2FB79DB00DBB203F03803DBB20549C0
:104F80001343DBB20B7000BF0C37BD465DF8047BEA
:104F9000704700BF0040064080B500AFAA212948F5
:104FA000FFF76EFE2748FEF795FD00BF2548FFF787
:104FB00076FE0346802BF9D1FFF730FE0121002059
:104FC000FFF794FE2048FDF78DF9204B1846FFF7B8
:104FD00037FE0223002101221846FDF7BFF800200A
:104FE000FFF79EFF194B1846FFF7C2FE022118205B
:104FF000FFF73CFF00231846FFF7B0FF0023002116
:10500000134A1846FDF728FA1248FCF7C3FE124B64
:10501000124A1A600020FFF7E3FD11494FF4E02027
:10502000FCF7DAFE0220FFF757FD0120FFF772FDC3
:105030000020FFF7B9FD002201210020FFF788FDC5
:1050400000BF80BD00E00740B87300000024F400FA
:10505000AC730000B07300005C000020000E270756
:10506000006CDC0280B485B000AF78607B681B0CFC
:1050700003F1804303F58E23FB60FB6819687B68AE
:105080009BB201229A40FB680A431A6000BF1437A2
:10509000BD465DF8047B704780B485B000AFF86012
:1050A000B9601346FB71FB68BA6853F8223023F4E9
:1050B000E062FB791B0203F4E06342EA0301FB6850
:1050C000BA6843F8221000BF1437BD465DF8047B70
:1050D0007047FFFF80B500AF2048FFF7C3FF2048AF
:1050E000FFF7C0FF1F48FFF7BDFF1F48FFF7BAFFDC
:1050F000012210211D48FFF7CFFF032210211C4879
:10510000FFF7CAFF032211211948FFF7C5FF02224A
:1051100012211748FFF7C0FF022213211448FFF79E
:10512000BBFF012205211348FFF7B6FF0222182119
:105130001148FFF7B1FF022219210F48FFF7ACFF1A
:105140000E4B03F5805310331B680C4923F0030208
:1051500001F5805310331A6000BF80BD090038107C
:105160000A0038100B0038100D0038100090044071
:1051700000A0044000B0044000D00440007004408F
:1051800080B500AF0B4BD3F888300A4A43F4700364
:10519000C2F88830084B4CF22052DA81064B4DF6AB
:1051A0002812DA81044B4FF4E9721A8000F006F8F5
:1051B00000BF80BD00ED00E00020054080B400AFDE
:1051C00000BFBD465DF8047B704708B500F098FA53
:1051D000BDE80840FBF7EABE10B50F4904460F488A
:1051E00000F0D6F90C49204600F0D2F90C49D1F86C
:1051F0008030013B002BC1F8803008DB8B6F5A1CDC
:105200008A670A221A70BDE8104000F00BB87831A6
:105210000A2000F031F8F6E788020020C073000091
:105220001002002018200149ABBE70472600020082
:1052300000F0DEBB00F0F6BBC368826923F02003F8
:1052400010B5C360836A9A4204460ED000F0B4F8E9
:10525000E36823F4405323F0100343F01003E360AA
:10526000A36AA3612369E3622360E36823F48043B4
:1052700023F04003E36010BDCB6823F4002270B537
:105280000C46CA609906054602D52046FFF7D4FFB2
:10529000D4E902365A1C10DAB0050ED4C3F1FF234C
:1052A00003F57F03FE33A360236846F490365A1C4F
:1052B000E66022601D70E8B270BD41F28A023240A1
:1052C000022A07D0002346F08006A360E6604FF074
:1052D000FF30F1E74AF210033340B3F5004F0AD133
:1052E0000021204600F06AF9E368990602D52046BD
:1052F000FFF7A2FFE66846F4903316F4706FE360A0
:105300000ED1606900F0B3FB00B372051ED504F145
:105310002403236123600123E36146F49233E360B5
:1053200013F4106F2168266926D0E36A99422CBFD6
:10533000C6EB0101C6EB0301B9B9731CE36223603C
:10534000E36923635A1EA2603570B4E74FF480709E
:1053500000F00EF94FF48073E268E36146F4943391
:105360001A4320612060E260DAE72246304600F00E
:105370004DF80028E1D0AAE74A1CEDB222600D707A
:10538000E26A216891422CBFC6EB0101C6EB020123
:10539000E26922635B0503D40A2D01D08A4209DC4D
:1053A0000023E6622660A3602246304600F02EF815
:1053B00000288CD128467FE738B501680569C36AA3
:1053C0000446C06820F40022E26000F08202022A53
:1053D00002D04FF0FF3038BD10F48030FBD099423E
:1053E00038BF19468D4208D1E368E562002023F4F6
:1053F00080332560A060E360EDE72246491B284624
:1054000000F004F80028EFD0E3E7FFFF2DE9F041BA
:10541000D5685769EB0280460E46144605D53846D6
:1054200000F01FFB45F01005A061124B2B408BB123
:10543000A169384600F027FB002806DAE36843F04C
:105440008003E3604FF0FF3011E025F4003525F0D4
:105450001005E56032464146384600F020FB20F05A
:105460000043F61AA3691E44A6610028E6D1BDE8F0
:10547000F08100BF10000200F8B5304F3C680028F2
:1054800051D10020F8BD2368B3F1805F39D1D4E950
:10549000013151B10A68B2F1805F06D1DA1C4B6864
:1054A0001A448B686260A360F1E7AB4207DB9E455C
:1054B00005DB20464FF0005340F80C3BE2E7634524
:1054C00011D920464FF00052656040F80C2B5B1B51
:1054D00000EB8502A260033B4FF0805440F825406A
:1054E000C2E90131CEE761B9A0EB830000F0AAF96F
:1054F0000130C6D04FF00053C4E9003504F10C0070
:10550000C0E72646A468002CBDD10C3000F09AF903
:10551000431CB6D04FF00053C0E90035846056B943
:1055200038600C30AEE7C31C9D08002605F10A0C5C
:1055300005F1030EE7E7B060F3E700BFC802002003
:10554000A8B14FF0805340F80C3C50F8042C72B1D5
:105550001368B3F1805F0AD150F8083C51680333F7
:105560000B4440F8083C936840F8043CEDE7704772
:1055700010B5FFF781FF044628B91722034900F050
:105580008EFAFFF74FFE204610BD00BFDC7300000F
:1055900038B505460C4615F8010B70B1A368013B00
:1055A000002BA36004DB23685A1C22601870F2E70A
:1055B0002146FFF761FE431CEDD138BD2DE9F843CC
:1055C000C6683D4B334004460D4690460BB9022752
:1055D00047E0D0F81490484600F049FA0746002802
:1055E000F5D1B8F1010F2CD0B8F1020F2ED0B8F1DF
:1055F000000FECD1002DEADBB00404D52368E26A89
:105600009A4238BFE362A169A9420EDC2368E26ACC
:10561000934238BF134622695818801AA84204DB07
:10562000206B01EB000CAC4536DC0023C4E90133F0
:1056300046F02006A56226F4032626F04006E66022
:105640000FE0204600F03AF80544D3E7484600F062
:1056500008FAB0F1000CE26806DA42F08002E2607B
:1056600001273846BDE8F883E36A1846A36919465E
:10567000236883422CBFC91809180B46216992067A
:10568000A3EB010303D5A26A9342B8BF1346634557
:10569000ACBFED186544ADE76D1AB10744BF281AD9
:1056A000A060F10744BF9B1AEB1A154448BF636022
:1056B000256026F02006BEE703001000C3689A07A5
:1056C00005D10E4B21221A604FF0FF30704703F0D6
:1056D00020021B0309D512B1806A013870470368A4
:1056E000826900691344181AF7E70AB1806A7047A3
:1056F0000368826900691344181A7047CC020020BD
:1057000010B5174A1749002000F0BAF84FF480731B
:105710004FF480620021124800F02EF8124A13491B
:10572000012000F0ADF84FF480734FF48062002147
:105730000D4800F021F80E4B1B68022B0EDD0D4AC0
:105740000A49022000F09CF84FF480734FF4806205
:1057500000210848BDE8104000F00EB810BD00BFA1
:1057600010020020F47300004C020020F6730000C9
:10577000D87300008802002070B5C468A5070CD05B
:10578000B2F5007F05D0B2F5806F08D0B2F5807F0A
:1057900003D1084D5E1EAE4204D9012008E000F19D
:1057A00024010123144301610160C361C46000202E
:1057B00070BD00BFFEFFFF0040EA01039B0710B56C
:1057C00013D10439024651F8043FA3F1013424EA0D
:1057D000030414F0803F05D0D9B202F8011B59B17F
:1057E0001B12F9E742F8043BEDE7421E11F8013BBA
:1057F00002F8013F002BF9D110BD10B5421C830700
:1058000016D1034650F8041BA1F1013424EA010427
:1058100014F0803FF5D011F0FF0F11D011F47F4F3D
:105820000CD011F47F0F14BF03460333981A04E021
:1058300010F8013B002BE2D1801A10BD0233F5E7CE
:105840000133F3E770B50B4D2B680BB90A4B2B6096
:10585000C41C2E6824F003043444204600F09CF855
:1058600010B92C60304670BD044B0C221A604FF00A
:10587000FF36F7E7C4020020D0020020CC0200204F
:1058800070B50D4606461046144600F02DF82B78EC
:10589000722B1AD0772B05D0612B23D1082348F225
:1058A000020201E00423022215F8011F2B290FD068
:1058B000622912D01B07E260666104D50222002132
:1058C0002046FFF77BFE204670BD00230122EBE758
:1058D00042F0030243F00203E6E742F0040243F021
:1058E0000103E1E70024EEE7F0B5C468A10789B041
:1058F000054622D0220718D4D0E9046700F020F82A
:10590000384600F0A8F8230502D53046FFF718FE08
:10591000A40DA40514F1A54F07D12022296A6846D9
:1059200000F0B7F8684600F02DF83C220021284628
:10593000FFF780FC002009B0F0BD4FF0FF30FAE720
:10594000F7B5044698B103B0BDE8F04000F030B8B8
:1059500007FB046000F02CF8002818BF4FF0FF355B
:105960000134019BA342F3DC284603B0F0BD034B96
:10597000034E1B68019305463C27F2E7D8730000ED
:105980001002002010B50446FFF737FF01462046FD
:10599000BDE8104000F071B8044B23B1984234BF09
:1059A0000020012070471846704700BFD012002029
:1059B000C36870B513F00306044611D09B0611D5D9
:1059C000856AFFF739FCE36823F44053E36020461F
:1059D000FFF7F2FC0022064629462046FFF7EEFDBF
:1059E000304670BD836905681D440369ED1AEAE716
:1059F00040EA0103DB0703460CD40346043A22BF06
:105A000051F804CB43F804CBB2F10402F7D20432CC
:105A100008BF7047013A24BF11F801CB03F801CB4E
:105A2000F8D87047034613F0030F0ED101F0FF01C1
:105A300041EA012141EA0141043A24BF43F8041B31
:105A4000B2F10402F9D202F10402013A24BF03F8D0
:105A5000011BFAE7704703B469460220ABBE02B0EF
:105A6000704703B469460C20ABBE02B0704703B464
:105A700069460920ABBE02B0704703B469460E20E8
:105A8000ABBE02B0704703B469460A20ABBE02B099
:105A900070470FB469460D20ABBE04B070470FB419
:105AA00069460520ABBE04B07047FFFF2E2E2F7550
:105AB00074696C69746965732F66736C5F64656281
:105AC00075675F636F6E736F6C652E633A31303547
:105AD000203A2064657669636520213D2044454273
